:100000000C9458000C9480000C9480000C94800098
:100010000C9480000C9480000C9480000C94800060
:100020000C9480000C9480000C9480000C94800050
:100030000C9480000C9480000C9480000C94800040
:100040000C9410040C9480000C9480040C945A04BA
:100050000C9480000C9480000C9480000C94800020
:100060000C94B2040C9480000000000025002800CD
:100070002B00040404040404040402020202020229
:10008000030303030303010204081020408001025C
:1000900004081020010204081020000000080002DB
:1000A0000100000304070000000000000000D1056B
:1000B00011241FBECFEFD8E0DEBFCDBF11E0A0E01E
:1000C000B1E0E4E9FFE002C005900D92A432B1076F
:1000D000D9F722E0A4E2B1E001C01D92A039B20735
:1000E000E1F710E0C8E5D0E004C02197FE010E94CE
:1000F000C207C735D107C9F70E940A060C94C80782
:100100000C94000090E0FC01E656FF4F2491FC01A6
:10011000EA57FF4F3491FC01EE58FF4FE491EE2374
:10012000C9F0222339F0233001F1A8F4213019F16C
:10013000223029F1F0E0EE0FFF1FE859FF4FA591A3
:10014000B4918FB7F894EC91611126C030953E239D
:100150003C938FBF08952730A9F02830C9F0243090
:1001600049F7809180008F7D03C0809180008F7758
:1001700080938000DFCF84B58F7784BDDBCF84B5DB
:100180008F7DFBCF8091B0008F778093B000D2CF6E
:100190008091B0008F7DF9CF3E2BDACF3FB7F89436
:1001A0008091930190919401A0919501B091960155
:1001B00026B5A89B05C02F3F19F00196A11DB11DC2
:1001C0003FBFBA2FA92F982F8827BC01CD01620FFE
:1001D000711D811D911D42E0660F771F881F991FB9
:1001E0004A95D1F7089580918D0190918C01891BDA
:1001F000990B089508950895AF92BF92CF92DF9220
:10020000EF92FF920F931F93CF93DF936C017B01CB
:100210008B01040F151FEB015E01AE18BF08C0175C
:10022000D10759F06991D601ED91FC910190F081CF
:10023000E02DC6010995892B79F7C501DF91CF9192
:100240001F910F91FF90EF90DF90CF90BF90AF90F4
:100250000895FC01538D448D252F30E0842F90E0CC
:10026000821B930B541710F0CF96089501970895B1
:10027000FC01918D828D981761F0A28DAE0FBF2F7A
:10028000B11D5D968C91928D9F5F9F73928F90E0D0
:1002900008958FEF9FEF0895FC01918D828D98173F
:1002A00031F0828DE80FF11D858D90E008958FEF7C
:1002B0009FEF0895FC01918D228D892F90E0805C45
:1002C0009F4F821B91098F739927089587EE91E0C4
:1002D0000E945A0121E0892B09F420E0822F089521
:1002E00080E090E0892B29F00E94660181110C9436
:1002F00000000895FC01A48DA80FB92FB11DA35AC9
:10030000BF4F2C91848D90E001968F739927848F35
:10031000A689B7892C93A089B1898C918370806458
:100320008C93938D848D981306C00288F389E02DF9
:1003300080818F7D80830895EF92FF920F931F93AA
:10034000CF93DF93EC0181E0888F9B8D8C8D981388
:100350001AC0E889F989808185FF15C09FB7F89494
:10036000EE89FF896083E889F989808183708064E0
:1003700080839FBF81E090E0DF91CF911F910F912B
:10038000FF90EF900895F62E0B8D10E00F5F1F4F3A
:100390000F731127E02E8C8D8E110CC00FB607FC49
:1003A000FACFE889F989808185FFF5CFCE010E94D7
:1003B0007A01F1CFEB8DEC0FFD2FF11DE35AFF4FCA
:1003C000F0829FB7F8940B8FEA89FB898081806265
:1003D000CFCFCF93DF93EC01888D8823B9F0AA8922
:1003E000BB89E889F9898C9185FD03C0808186FDF0
:1003F0000DC00FB607FCF7CF8C9185FFF2CF80813F
:1004000085FFEDCFCE010E947A01E9CFDF91CF9138
:10041000089520914501260F3327331F21323105DE
:10042000ECF42091BD01FC0190E080E0243069F003
:1004300082E00895A09145012191AC014B5D5E4F92
:10044000A40FB52FB11D2C930196861798F38091B8
:100450004501680F6093450180E0089581E00895AB
:100460001092BD0181E08093BC011092970161E080
:1004700082E10E94820061E083E10E948200E9EB58
:10048000F0E080818E7F808380818D7F808388E40F
:100490008093B80085E48093BC000895CF93DF93E8
:1004A00091E0909324018823B9F0C091B800D091D5
:1004B000BA008091BC008A7B8093BC0060E082E13E
:1004C0000E94820060E083E10E9482000E9430026C
:1004D000D093BA00C093B800DF91CF910895CF9226
:1004E000DF92EF92FF920F931F93CF93DF93D09100
:1004F000E60181E0D13208F09CC0C091E5010E9484
:10050000CE006B017C018091BD0181116CC082E045
:100510008093BD0181E08093BC018FEF8093BB018C
:100520001092BA01D093B901A5ECB1E0E9E9F1E08C
:1005300080E0D8138DC01092980180919801CC0F63
:10054000C82BC093980180919701813009F084C035
:10055000109297010E94CE006B017C01809198015E
:100560008093BB008091BF019091C001A091C10117
:10057000B091C201892B8A2B8B2BA1F00E94CE0057
:100580000091BF011091C0012091C1013091C201C1
:100590006C197D098E099F09061717072807390767
:1005A00008F442C08091BC0083FDD8CF85EC8093D5
:1005B000BC000E94CE006B017C018091BD018230A5
:1005C00009F44CC08091BB018F3F09F469C0809150
:1005D000BB01803209F466C08091BB01803309F40D
:1005E00063C084E026C08091BF019091C001A091BA
:1005F000C101B091C201892B8A2B8B2B09F483CFC7
:100600000E94CE000091BF011091C0012091C10154
:100610003091C2016C197D098E099F0906171707D1
:100620002807390708F06FCF8091BE010E944E0263
:1006300085E01092C4011092E6011092C301DF918F
:10064000CF911F910F91FF90EF90DF90CF90089581
:100650009D9191938F5F6DCF85EEA9CF8091BF0162
:100660009091C001A091C101B091C201892B8A2B48
:100670008B2B09F4A2CF0E94CE000091BF011091F4
:10068000C0012091C1013091C2016C197D098E0910
:100690009F09061717072807390708F08ECFC4CF20
:1006A00080E0C7CF82E0C5CF83E0C3CF0895E0915B
:1006B0008C0180918D01E81730F4F0E0E459FE4F91
:1006C000808190E008958FEF9FEF089590918C01C5
:1006D00080918D012FEF3FEF981748F4E92FF0E05C
:1006E000E459FE4F208130E09F5F90938C01C90157
:1006F0000895CF92DF92EF92FF920F931F93CF93C3
:10070000DF937C01CB018A012091C301222389F070
:10071000EB016B01C40ED51ECC15DD0569F06991A6
:10072000D701ED91FC910190F081E02DC701099571
:10073000F3CF642F0E940902C801DF91CF911F916E
:100740000F91FF90EF90DF90CF900895CF93DF93BC
:100750001F92CDB7DEB769832091C3012223F9F040
:100760002091E601203258F021E030E0FC01338393
:10077000228390E080E00F90DF91CF9108958091E7
:10078000C401E82FF0E0EB53FE4F998190838F5F17
:100790008093C4018093E60181E090E0ECCF61E0BA
:1007A000CE0101960E940902F7CF90E080E0089503
:1007B00085ED8093BC008091BF019091C001A09114
:1007C000C101B091C2010796A11DB11D23E0B695EC
:1007D000A795979587952A95D1F72091BC0024FD80
:1007E00003C01092BD0108954091BF015091C00116
:1007F0006091C1017091C201452B462B472B69F3D3
:100800000097A105B10541F02AE22A95F1F700C051
:100810000197A109B109E1CF8091BE010C944E026C
:100820001F920F920FB60F9211242F933F938F9325
:100830009F93AF93BF9380918F0190919001A0916E
:100840009101B091920130918E0123E0230F2D3759
:1008500058F50196A11DB11D20938E0180938F0143
:1008600090939001A0939101B09392018091930194
:1008700090919401A0919501B09196010196A11DCE
:10088000B11D8093930190939401A0939501B0932F
:100890009601BF91AF919F918F913F912F910F90B2
:1008A0000FBE0F901F90189526E8230F0296A11DEA
:1008B000B11DD2CF1F920F920FB60F9211242F931A
:1008C0003F934F935F936F937F938F939F93AF93D8
:1008D000BF93EF93FF9387EE91E00E947A01FF911F
:1008E000EF91BF91AF919F918F917F916F915F91A8
:1008F0004F913F912F910F900FBE0F901F90189521
:100900001F920F920FB60F9211242F938F939F93E4
:10091000EF93FF93E091F701F091F8018081E0916E
:10092000FD01F091FE0182FD1BC0908180910002CB
:100930008F5F8F7320910102821741F0E0910002D6
:10094000F0E0E951FE4F958F80930002FF91EF9107
:100950009F918F912F910F900FBE0F901F90189520
:100960008081F4CF1F920F920FB60F9211242F9314
:100970003F934F935F936F937F938F939F93AF9327
:10098000BF93EF93FF938091B900887F803609F47D
:100990004AC0F0F5883209F4A7C018F5803109F48F
:1009A0009BC0B8F4882309F4F9C0883009F494C0D6
:1009B000FF91EF91BF91AF919F918F917F916F9137
:1009C0005F914F913F912F910F900FBE0F901F900D
:1009D0001895883109F488C0803251F78093BB01A3
:1009E00014C0803409F49DC040F48033B9F38833D7
:1009F000F9F68093BB0185ECB0C0803509F485C061
:100A0000883509F496C0883499F60E94D803D0CF6F
:100A1000883909F48CC038F5883729F050F48836C5
:100A200011F0803729F683E08093BD0110926701B1
:100A300057C0883809F47BC0803919F0803809F034
:100A4000B7CF80916701803208F071C0E0916701F3
:100A500081E08E0F809367018091BB00F0E0E95B3D
:100A6000FE4F80833DC0803B39F0E0F4803A09F4CA
:100A700079C0883A09F09CCF84E08093BD01109240
:100A8000460110924501E0916A01F0916B010995D0
:100A90008091450181110FC081E080934501109242
:100AA000250109C0803C09F4A6CF883C09F4A3CFF6
:100AB000883B09F07DCFE091460181E08E0F809365
:100AC0004601F0E0EB5DFE4F80818093BB0090918A
:100AD00046018091450129C0809198018093BB0017
:100AE00085EC8093BC0064CF9091BA018091B901EC
:100AF000981758F5E091BA0181E08E0F8093BA0102
:100B0000F0E0E756FE4F8081E9CFE091BA0181E045
:100B10008E0F8093BA018091BB00F0E0E756FE4F44
:100B200080839091BA018091B9019817C8F285E845
:100B3000D8CFE091BA0181E08E0F8093BA01809105
:100B4000BB00F0E0E756FE4F80838091BC0181112D
:100B50005CCF81E08093970184EA8093BC0010927F
:100B6000BD0126CF85EC8093BC001092BD01809121
:100B70006701803230F4E0916701F0E0E95BFE4FFD
:100B800010826091670170E0E0916801F091690165
:100B900087E491E00995109267010ACF1092BB019A
:100BA00034CFE7EEF1E01382128288EE93E0A0E00A
:100BB000B0E084839583A683B78324E031E031835A
:100BC000208325EC30E03587248724EC30E037871C
:100BD000268720EC30E0318B208B21EC30E0338B0A
:100BE000228B22EC30E0358B248B26EC30E0378BE7
:100BF000268B118E128E138E148EE4E8F2E013828F
:100C0000128284839583A683B78386E191E09183E2
:100C100080830895789484B5826084BD84B58160B2
:100C200084BD85B5826085BD85B5816085BD8091B7
:100C30006E00816080936E0010928100809181002F
:100C40008260809381008091810081608093810027
:100C5000809180008160809380008091B1008460E9
:100C60008093B1008091B00081608093B00080914A
:100C70007A00846080937A0080917A008260809309
:100C80007A0080917A00816080937A0080917A0066
:100C9000806880937A001092C10010928C011092AB
:100CA0008D011092C4011092E6010E9430028AEF79
:100CB00090E090936B0180936A018BEF90E09093AA
:100CC000690180936801E091F701F091F80182E0F9
:100CD0008083E091F301F091F4011082E091F5013D
:100CE000F091F6018FEC80831092FF01E091FB01FF
:100CF000F091FC0186E08083E091F901F091FA0126
:100D0000808180618083E091F901F091FA01808116
:100D100088608083E091F901F091FA018081806818
:100D20008083E091F901F091FA0180818F7D8083C9
:100D30000E94CE004B015C0182E3C82ED12CE12C35
:100D4000F12C0E94CE00681979098A099B09683E36
:100D5000734081059105A8F321E0C21AD108E1088A
:100D6000F10888EE880E83E0981EA11CB11CC11406
:100D7000D104E104F10429F7C1E0C093C30180E587
:100D80008093E50160E084E892E00E94A6036AEAAD
:100D900084E892E00E94A6036BEB84E892E00E9454
:100DA000A6036CEC84E892E00E94A6036DED84E853
:100DB00092E00E94A6030E946F02C093C3011092AA
:100DC000C4011092E60160E084E892E00E94A6036C
:100DD0000E946F020E94CE006B017C018091BD01D8
:100DE000811165C081E08093BD018093BC019FEFBC
:100DF0009093BB011092BA0193E09093B901809354
:100E0000980180919801806A809398018091970160
:100E1000813009F084C0109297010E94CE006B01CE
:100E20007C01809198018093BB008091BF019091DB
:100E3000C001A091C101B091C201892B8A2B8B2BDB
:100E4000A1F00E94CE008090BF019090C001A090C0
:100E5000C101B090C2016C197D098E099F098616E7
:100E60009706A806B90608F443C08091BC0083FD2C
:100E7000D8CF85EC8093BC000E94CE006B017C0132
:100E80008091BD01813009F44CC08091BA01C4E069
:100E9000843010F4C091BA01A9E9B1E0ECE6F1E0C8
:100EA00080E08C1751F19D9191938F5FFACF8091E3
:100EB000BF019091C001A091C101B091C201892BE5
:100EC0008A2B8B2B09F48ACF0E94CE008090BF0121
:100ED0009090C001A090C101B090C2016C197D0931
:100EE0008E099F0986169706A806B90608F076CFE0
:100EF0008091BE010E944E02C0E010928C01C0930E
:100F00008D0180918C01C81771F184E892E00E94F4
:100F10006603682F87EE91E00E949C01F2CF85EE78
:100F2000A9CF8091BF019091C001A091C101B09162
:100F3000C201892B8A2B8B2B09F4A2CF0E94CE00F1
:100F40008090BF019090C001A090C101B090C201FB
:100F50006C197D098E099F0986169706A806B906A1
:100F600008F08ECFC5CF87EE91E00E94E901C0E086
:100F7000D0E02097F1F30E9466018823D1F30E940C
:100F80000000F7CFEE0FFF1F0590F491E02D0994BC
:040F9000F894FFCF03
:100F9400000000009C01FC002901E9015A0138010C
:100FA4004C0100000000A6037903D5035603F300A7
:040FB4006603570376
:00000001FF
